:100000000C9434000C9451000C9451000C94510049
:100010000C9451000C9451000C9451000C94C901A3
:100020000C9451000C9451000C9451000C9451000C
:100030000C9451000C9451000C9451000C945100FC
:100040000C9451000C9451000C94D9030C9423048B
:100050000C9451000C9451000C9451000C945100DC
:100060000C9451000C94510011241FBECFEFD8E026
:10007000DEBFCDBF11E0A0E0B1E0E2E3F9E002C0F5
:1000800005900D92AC35B107D9F726E0ACE5B1E0AB
:1000900001C01D92AF34B207E1F70E9414010C9425
:1000A00097040C9400002F923F924F925F926F92B0
:1000B0007F928F929F92AF92BF92CF92DF92EF92F8
:1000C000FF920F931F93CF93DF930DB71EB7C82FE7
:1000D000D92F08831983C62FD72F088119810DBF07
:1000E0001EBFDF91CF911F910F91FF90EF90DF9096
:1000F000CF90BF90AF909F908F907F906F905F90C8
:100100004F903F902F900895C82FD92F08811981C3
:100110000DBF1EBFDF91CF911F910F91FF90EF9008
:10012000DF90CF90BF90AF909F908F907F906F9017
:100130005F904F903F902F900895CF93DF93CDB76E
:10014000DEB7C054D1090FB6F894DEBF0FBECDBFE5
:1001500061E070E080E091E00E9467038BE5D82EBB
:1001600095E6C92E23E6B22E38E6A32E4FE6942E4E
:100170005DE5852E60E2762E7DE0672EEAE05E2E5C
:10018000D982CA82BB82AC829D828E827F827E01AE
:1001900088E0E80EF11C07E010E00E943A038D3081
:1001A000910531F08A30910519F00E331105B1F443
:1001B000E1E0F0E0EC0FFD1FE00FF11F6082E2E0F4
:1001C000F0E0EC0FFD1FE00FF11F5082B8016E5FF1
:1001D0007F4FCE0101960E946703D2CF0F5F1F4F62
:1001E000F70181937F01D9CF6CE170E086E291E065
:1001F0000E9467032FEF86E191E1215080409040FB
:10020000E1F700C00000F0CF68E170E083E491E026
:100210000E9467032FEF83EC99E0215080409040CB
:10022000E1F700C00000F0CF60E071EE80E090E008
:100230000E94E50200E010E0980144E051E06BE527
:1002400074E084E894E00E945A0200E010E0980113
:1002500044EF50E06BE573E080E794E00E945A02BF
:1002600000E010E098014DE950E06BE572E08CE5AC
:1002700094E00E945A0264E874E088E994E00E94E5
:10028000B10260E774E088E994E00E94B1026CE595
:1002900074E088E994E00E94B1020E949101FFCFCE
:1002A000FFCFCF93DF93C0911D05D0911E052097FE
:1002B00069F08A899B89892B49F482E090E09B8BC5
:1002C0008A8BBE0188E994E00E94B10288E994E03B
:1002D0000E948C02009799F090931E0580931D0553
:1002E00060911D0570911E05FB01138A128A6C171F
:1002F0007D0741F0CE01DF91CF910C9453008BE349
:1003000096E0EACFDF91CF91089582E08093B0002C
:1003100094E09093B10099EF9093B30080937000B4
:1003200008950F931F93F8948091980490919904E5
:10033000892B89F400E010E0980140E551E06CE180
:1003400075E08BE396E00E945A026BE376E088E961
:1003500094E00E94B10288E994E00E948C02009728
:10036000A9F090931E0580931D05E0911D05F09165
:100370001E05138A128A0E948501789480911D05BA
:1003800090911E051F910F910C9484008BE396E0D1
:10039000E8CF1F920F920FB60F9211242F933F9325
:1003A0004F935F936F937F938F939F93AF93BF937D
:1003B000EF93FF930E945101FF91EF91BF91AF9195
:1003C0009F918F917F916F915F914F913F912F916D
:1003D0000F900FBE0F901F901895FC011182108294
:1003E000158214821382128216820895F894FC01F9
:1003F0002081318160911D0570911E05232B21F410
:10040000718360837894089523E030E0FB01338B9F
:10041000228B02960E94B1020E945101F3CFCF932A
:10042000DF93EC01F8942881398180911D0590912A
:100430001E052817390721F07894DF91CF91089590
:100440008E81882389F0CE0102960E948C029983C6
:10045000888322E030E0FC01338B228BBC0188E9E9
:1004600094E00E94B102E8CF19821882E5CF789417
:10047000A0911D05B0911E05109789F012968D91DF
:100480009C911397892B59F01296ED91FC9113973B
:1004900014966D917D918D919C9117970995F89483
:1004A000E0911D05F0911E0581E090E0938B828B19
:1004B0000C9451010F931F93DC0113965C934E93A0
:1004C000129714960D931D932D933C93179719969D
:1004D0001C921E9218971B961C921E921A9782E0ED
:1004E00090E053969C938E93529787E392E0FB01A2
:1004F00080839293CB0141971292E817F907E1F7B5
:10050000FB017297108231971082645171096D93CB
:100510007C931F910F910895CF93DF93FC01A081ED
:10052000B181109789F08481813091F41382128215
:10053000118210828150848319961C921E92189702
:100540001B961C921E921A97CD01DF91CF910895B0
:100550001896CD91DC911997D183C0831B861A869A
:10056000E9CFCF93DF93DC01FB0182859385892B53
:1005700051F580859185892B31F514968C911497CE
:10058000811112C011967C936E9313967C936E9397
:10059000129713861286118610868F5F14968C939D
:1005A00081E0DF91CF9108951296CD91DC91139760
:1005B00079876887D387C2871186108613967C93C4
:1005C0006E931297EACF80E0ECCF9B01AC0160E420
:1005D00072E48FE090E00E9475042150310930935D
:1005E000C5002093C40086E08093C20088E9809310
:1005F000C10086E295E00E94ED018FE195E00C9448
:10060000ED010F931F93CF93C82FF8948091380575
:100610008F5F803809F480E003E010E090913705A7
:100620009817A1F0E0913805F0E0E55CFA4FC0833F
:10063000809338058091C10080628093C1007894D6
:1006400090E080E0CF911F910F91089560911D057A
:1006500070911E05FB01138B028B8DE295E00E94C9
:10066000B1020E945101809138058F5F8038B1F648
:1006700080E0D4CFCF93DF93F894C3E0D0E09091A3
:100680003A05809139059817A1F0E0913905F0E01D
:10069000E554FA4F208130E0909139059F5F903802
:1006A00009F490E0909339057894C901DF91CF91D6
:1006B000089560911D0570911E05FB01D38BC28BBF
:1006C00082E395E00E94B1020E945101D8CF6F925F
:1006D0007F928F929F92AF92BF92CF92DF92EF92D2
:1006E000FF920F931F93CF93DF93009709F45EC09F
:1006F0006115710509F45AC08B016C0186E295E021
:100700000E94F601F12CE12C83E0682E712CE0169A
:10071000F106A0F086E295E00E940F02C801DF9189
:10072000CF911F910F91FF90EF90DF90CF90BF90EE
:10073000AF909F908F907F906F900895F8948091E4
:100740003805C09137058C17A8F0C158C81B78949C
:10075000C11112C0F89460911D0570911E05FB0136
:10076000738A628A8DE295E00E94B1020E94510173
:100770007894CDCFC150EACFC8018E199F09D0E03F
:100780008C179D0708F4EC0146018E0C9F1C540148
:10079000F50181915F010E940103C5018819990942
:1007A0008C179D07A8F3EC0EFD1EB1CF80E090E002
:1007B000B6CF1F920F920FB60F9211242F933F9333
:1007C0004F935F936F937F938F939F93AF93BF9359
:1007D000EF93FF939091C60080913A058F5F803828
:1007E00009F480E020913905281741F0E0913A059D
:1007F000F0E0E554FA4F908380933A0580913605F6
:10080000882381F082E395E00E948C02009751F0EA
:1008100022E030E0FC01338B228BBC0188E994E0BC
:100820000E94B102FF91EF91BF91AF919F918F9183
:100830007F916F915F914F913F912F910F900FBEDC
:100840000F901F9018951F920F920FB60F921124C0
:100850002F933F934F935F936F937F938F939F93C8
:10086000AF93BF93EF93FF93909138058091370535
:1008700098132AC08091C1008F7D8093C100809120
:100880003105882381F08DE295E00E948C0200976B
:1008900051F022E030E0FC01338B228BBC0188E96F
:1008A00094E00E94B102FF91EF91BF91AF919F91AF
:1008B0008F917F916F915F914F913F912F910F9009
:1008C0000FBE0F901F901895E0913705F0E0E55CA2
:1008D000FA4F80818093C600809137058F5F803802
:1008E00009F480E080933705DECFA1E21A2EAA1B1F
:1008F000BB1BFD010DC0AA1FBB1FEE1FFF1FA217D0
:10090000B307E407F50720F0A21BB30BE40BF50BCC
:10091000661F771F881F991F1A9469F76095709555
:10092000809590959B01AC01BD01CF010895F8948D
:02093000FFCFF7
:100932005B6563686F5D204563686F2070726F6EE0
:10094200746F2E20446967697461206520696E7630
:10095200696F2E0D0A005B74325D20477265657403
:10096200696E67732066726F6D207461736B2032DB
:100972000D0A005B74315D2048656C6C6F206672F5
:0C0982006F6D207461736B20310D0A0052
:00000001FF
